:020000040800F2
:1000000000500020AD150008D9070008E1070008DE
:10001000E9070008F1070008F907000800000000E0
:1000200000000000000000000000000001080008BF
:100030000D08000800000000190800082508000845
:10004000F5150008F5150008F5150008F515000868
:10005000F5150008F5150008F5150008F515000858
:10006000F5150008F5150008F5150008F515000848
:10007000F5150008F5150008F5150008F515000838
:10008000F5150008F5150008F5150008F515000828
:1000900031080008F5150008F5150008F5150008E9
:1000A000F5150008F5150008F5150008F515000808
:1000B000F5150008F5150008F5150008F5150008F8
:1000C000F5150008F5150008F5150008F5150008E8
:1000D000F5150008F5150008F5150008F5150008D8
:1000E000F5150008F5150008F515000800000000DA
:1000F0000000000000000000000000000000000000
:0C01000000000000000000005FF808F1A3
:10010C0010B5054C237833B9044B13B10448AFF345
:10011C0000800123237010BD84010020000000002A
:10012C00DC87000808B5034B1BB103490348AFF348
:10013C00008008BD0000000088010020DC8700085A
:10014C0080B483B000AF0346FB71FB79002B0CD15C
:10015C000C4B4FF088325A600A4B4FF088321A60C1
:10016C00084B4FF6FF72DA6007E0064B4FF0333264
:10017C005A60044B4FF033321A6000BF0C37BD4647
:10018C0080BC7047000C014080B483B000AF0346C4
:10019C00FB71FB79002B07D1084B4FF088321A60AA
:1001AC00064BFF221A6103E0044B4FF033321A6006
:1001BC0000BF0C37BD4680BC704700BF0008014033
:1001CC0080B400AF034B9B689BB21846BD4680BC05
:1001DC00704700BF000C014080B400AF034B9B681C
:1001EC00DBB21846BD4680BC704700BF000801401A
:1001FC0080B483B000AF0346FB80044AFB88D36015
:10020C0000BF0C37BD4680BC704700BF000C0140DE
:10021C0080B485B000AF0346FB71074BDB68FB6015
:10022C00FB6823F0FF02FB7903491343CB6000BF4B
:10023C001437BD4680BC70470008014080B586B0BD
:10024C0000AFF860B9601346FB800120FFF79CFFFC
:10025C000120FFF775FFFB681B0CDBB21846FFF79C
:10026C00D7FFFB689BB21846FFF7C2FF164B4FF047
:10027C0080721A610020FFF763FF00237B6113E09B
:10028C00114B4FF000721A61FFF79AFF03461A46A2
:10029C00BB681A800C4B4FF400721A61BB680233B6
:1002AC00BB607B6901337B61FB887A699A42E7DB2F
:1002BC00054B4FF480721A610020FFF765FF00BFF9
:1002CC001837BD4680BD00BF0008014080B586B020
:1002DC0000AFF860B9601346FB800120FFF754FFB4
:1002EC000120FFF72DFFFB681B0CDBB21846FFF754
:1002FC008FFFFB689BB21846FFF77AFF154B4FF048
:10030C0080721A6100237B6112E0BB681B8818465F
:10031C00FFF76EFF0F4B4FF080621A610D4B4FF4DD
:10032C0080621A61BB680233BB607B6901337B61FD
:10033C00FB887A699A42E8DB064B4FF480721A61AB
:10034C000020FFF721FF0020FFF7FAFE00BF18374F
:10035C00BD4680BD0008014080B584B000AF0346A7
:10036C003960FB801346BB800020FFF70DFF012096
:10037C00FFF7E6FE184B4FF000521A610023FB60AA
:10038C001AE0FB881846FFF733FF144B4FF000724E
:10039C001A61FFF721FF03461A463B681A700F4B90
:1003AC004FF400721A61FB880133FB803B68013308
:1003BC003B60FB680133FB60BB88FA689A42E0DB68
:1003CC00054B4FF400521A610020FFF7B9FE00BF35
:1003DC001037BD4680BD00BF001001400008014031
:1003EC0080B584B000AF03463960FB801346BB80F8
:1003FC000120FFF7C9FE0120FFF7A2FE194B4FF0B9
:10040C0000521A610023FB6019E0FB881846FFF7C5
:10041C00EFFE3B681B781846FFF7FAFE124B4FF0C5
:10042C0080621A61104B4FF480621A61FB880133B1
:10043C00FB803B6801333B60FB680133FB60BB888E
:10044C00FA689A42E1DB074B4FF400521A61002024
:10045C00FFF79AFE0020FFF773FE00BF1037BD4672
:10046C0080BD00BF001001400008014080B584B081
:10047C0000AF03463960FB801346BB800020FFF7BA
:10048C0083FE0120FFF75CFE184B4FF080721A615F
:10049C000023FB601AE0FB881846FFF7A9FE134BFC
:1004AC004FF000721A61FFF797FE03461A463B683D
:1004BC001A700E4B4FF400721A61FB880133FB80EB
:1004CC003B6801333B60FB680133FB60BB88FA6817
:1004DC009A42E0DB054B4FF480721A610020FFF763
:1004EC002FFE00BF1037BD4680BD00BF0008014085
:1004FC0080B584B000AF03463960FB801346BB80E7
:10050C000120FFF741FE0120FFF71AFE194B4FF0B7
:10051C0080721A610023FB6019E0FB881846FFF714
:10052C0067FE3B681B781846FFF772FE114B4FF0C5
:10053C0080621A610F4B4FF480621A61FB880133A1
:10054C00FB803B6801333B60FB680133FB60BB887D
:10055C00FA689A42E1DB074B4FF480721A61002073
:10056C00FFF712FE0020FFF7EBFD00BF1037BD4672
:10057C0080BD00BF0008014080B500AF01F036F827
:10058C0000F007F800F060F807F032FC00F038FAE1
:10059C00FCE780B594B000AF07F1280328220021B6
:1005AC00184608F0DBF807F1140300221A605A60B1
:1005BC009A60DA601A613B1D00221A605A609A60D8
:1005CC00DA600123BB624FF48033FB6200233B6390
:1005DC000123BB6302237B644FF48033BB644FF471
:1005EC00E013FB6407F12803184603F06BF803468D
:1005FC00002B01D000F0B2F80F237B610223BB610A
:10060C000023FB614FF480633B6200237B6207F1A4
:10061C0014030221184603F0D7FA0346002B01D02D
:10062C0000F09CF810237B6000233B613B1D1846B7
:10063C0003F026FC0346002B01D000F08FF800BF1E
:10064C005037BD4680BD000080B588B000AF07F1C3
:10065C00100300221A605A609A60DA603B4B9B6967
:10066C003A4A43F010039361384B9B6903F0100333
:10067C00FB60FB68354B9B69344A43F02003936164
:10068C00324B9B6903F02003BB60BB682F4B9B690B
:10069C002E4A43F0040393612C4B9B6903F0040333
:1006AC007B607B68294B9B69284A43F00803936164
:1006BC00264B9B6903F008033B603B6801224FF417
:1006CC00C041234801F086FA01224FF4E061214831
:1006DC0001F080FA4FF4C0433B6101237B6101239D
:1006EC00BB610323FB6107F110031946184801F0A5
:1006FC00EDF8FF233B6100237B610123BB6107F114
:10070C0010031946134801F0E1F84FF6FF733B61F3
:10071C0000237B610123BB6107F1100319460E48CE
:10072C0001F0D4F84FF4E0633B6101237B610123BA
:10073C00BB610323FB6107F110031946054801F067
:10074C00C5F800BF2037BD4680BD00BF0010024079
:10075C000010014000080140000C014080B400AFC3
:10076C0072B600BF00BFFDE780B485B000AF154B7B
:10077C009B69144A43F001039361124B9B6903F08C
:10078C000103BB60BB680F4BDB690E4A43F080531F
:10079C00D3610C4BDB6903F080537B607B680A4BA5
:1007AC005B68FB60FB6823F0E063FB60FB6843F075
:1007BC000073FB60044AFB68536000BF1437BD46EE
:1007CC0080BC7047001002400000014080B400AFB4
:1007DC0000BFFDE780B400AF00BFFDE780B400AF01
:1007EC0000BFFDE780B400AF00BFFDE780B400AFF1
:1007FC0000BFFDE780B400AF00BFBD4680BC7047B2
:10080C0080B400AF00BFBD4680BC704780B400AF61
:10081C0000BFBD4680BC704780B500AF00F02CFF18
:10082C0000BF80BD80B500AF024801F007FB00BFE0
:10083C0080BD00BF6C39002080B400AF00BFBD4646
:10084C0080BC704780B582B000AF03460A46FB718E
:10085C001346BB71104B1B78002B02D1FB79002B7C
:10086C0006D10E4B1B78002B0BD1BB79002B08D07B
:10087C000B4B00221A8041F27C520021094807F0F0
:10088C006DFF054AFB791370044ABB79137000BFE6
:10089C000837BD4680BD00BF9D2C00209E2C00203B
:1008AC00A0010020A401002080B586B000AF7860C4
:1008BC000B467B807B68002B07D01C4B1B680233DC
:1008CC007A887968184607F075FF194BD3F8B83257
:1008DC003B617B880233FB810023FB821CE0FA899D
:1008EC00FB8AD31ABB82BB8AB3F5007F02D94FF4C3
:1008FC000073BB8200BF3B69D3F81432002BFAD1D2
:10090C00FB8A0C4A1344BA8A1146184607F048FB76
:10091C00FA8ABB8A1344FB82FA8AFB899A42DED399
:10092C0000BF00BF1837BD4680BD00BF08000020C7
:10093C00A82C00202017002080B582B000AF0A4BF5
:10094C00D3F8B8327B6000BF7B68D3F81432002B2D
:10095C00FAD1AA23FB70FB1C0121184607F020FBDF
:10096C0000BF0837BD4680BDA82C002080B584B0E0
:10097C0000AF78603960144B1B78DBB2002B1CD1B4
:10098C00124B1B88C3F5AB531C33FB81FB893A68B4
:10099C009A4214D80D4B1B881A460D4B13443A68D7
:1009AC007968184607F006FF3B689AB2074B1B881C
:1009BC0013449AB2054B1A8002E000BF00E000BF5E
:1009CC001037BD4680BD00BF9C2C0020A00100202C
:1009DC00A401002080B500AF064B00221A8041F222
:1009EC007C520021044807F0B9FE044B00221A7017
:1009FC0000BF80BDA0010020A40100209C2C002081
:100A0C0080B500AF434B1B88022B40F28280424BD7
:100A1C001B681B889AB23F4B1B889A4279D13F4B7B
:100A2C0001221A7000224FF480413D4801F0D2F8A7
:100A3C00394B1B689B78E73B152B62D801A252F807
:100A4C0023F000BFE50A0008EB0A00080F0B0008B2
:100A5C00030B0008090B00080F0B00080F0B000814
:100A6C000F0B00080F0B0008A90A0008AF0A0008BA
:100A7C00B50A0008BB0A0008C10A0008C70A00082A
:100A8C00CD0A0008D30A0008D90A0008DF0A0008BA
:100A9C00F10A0008F70A0008FD0A000800F072F8D5
:100AAC0030E000F0BFF82DE000F0FDF82AE000F097
:100ABC0003F927E000F052F924E000F01FFA21E0DE
:100ACC0000F042FA1EE000F06FFA1BE000F092FA20
:100ADC0018E000F0B9FA15E000F020FB12E000F08D
:100AEC0061FB0FE000F0A8FB0CE000F0CBFB09E091
:100AFC0000F0F2FB06E000F0C5FC03E000F006FDA0
:100B0C0000E000BF01224FF48041054801F062F87B
:100B1C0000BF80BDA0010020040000209C2C002000
:100B2C000010014080B584B000AF78600B467B802C
:100B3C0007F10E03012219467868FFF77FFBFA894B
:100B4C007B8853409BB203F08003002B0ED107F13E
:100B5C000E03012219467868FFF770FB07F10E03AC
:100B6C00012219467868FFF769FB05E0044B1B88E6
:100B7C00002B00D0DCE700BF00BF1037BD4680BDA6
:100B8C00A001002080B584B000AFAA23FB8107F13F
:100B9C000E030122194640F25550FFF797FB5523DF
:100BAC00FB8107F10E030122194640F2AA20FFF740
:100BBC008DFB9023FB8107F10E030122194640F2B5
:100BCC005550FFF783FB3B1D012219460020FFF710
:100BDC0035FB3B1D0233012219460120FFF72EFB8A
:100BEC003B1D0433012219460E20FFF727FB3B1D4A
:100BFC000633012219460F20FFF720FBF023FB815F
:100C0C0007F10E03012219460020FFF75FFBFFF7E7
:100C1C00E1FE3B1D08211846FFF746FE00BF1037CA
:100C2C00BD4680BD80B582B000AFAA23FB80BB1D42
:100C3C000122194640F25550FFF748FB5523FB8023
:100C4C00BB1D0122194640F2AA20FFF73FFB80236F
:100C5C00FB80BB1D0122194640F25550FFF736FBB5
:100C6C00AA23FB80BB1D0122194640F25550FFF709
:100C7C002DFB5523FB80BB1D0122194640F2AA20F7
:100C8C00FFF724FB1023FB80BB1D0122194640F209
:100C9C005550FFF71BFBFFF79DFEFFF74DFE00BF06
:100CAC000837BD4680BD80B500AFFFF793FEFFF758
:100CBC0043FE00BF80BD000080B584B000AF264B62
:100CCC001B680333FB60FB681B685B0803F47F0342
:100CDC00BB60AA23FB80BB1D0122194640F2555074
:100CEC00FFF7F4FA5523FB80BB1D0122194640F295
:100CFC00AA20FFF7EBFA8023FB80BB1D01221946CB
:100D0C0040F25550FFF7E2FAAA23FB80BB1D0122EB
:100D1C00194640F25550FFF7D9FA5523FB80BB1DFD
:100D2C000122194640F2AA20FFF7D0FA3023FB80AB
:100D3C00BB1D01221946B868FFF7C8FA4FF6FF71C0
:100D4C00B868FFF7EFFEFFF745FEFFF7F5FD00BFB4
:100D5C001037BD4680BD00BF0400002080B58AB0AE
:100D6C0000AF644B1B680333FB61FB691B68BB6101
:100D7C00BB695B087B615F4B1B681B889BB20B3BA1
:100D8C007B827B8A5B083B82FB6904331B88FB817B
:100D9C00FB6904330233BB6000237B629DE07A69FC
:100DAC007B6A13447B60FB89002B37D1AA237B80A1
:100DBC00BB1C0122194640F25550FFF787FA552308
:100DCC007B80BB1C0122194640F2AA20FFF77EFA59
:100DDC00A0237B80BB1C0122194640F25550FFF723
:100DEC0075FA7B6A5B00BA6813440122194678686D
:100DFC00FFF76CFA7B6A5B00BA6813441B881946D0
:100E0C007868FFF78FFE3C4B1B88002B02D1FFF755
:100E1C00E1FD6BE07B6A01337B625EE07B6A9BB237
:100E2C003A8AD31A7B84FB895B089BB27A8C9A42F0
:100E3C0002D9FB895B087B84AA237B80BB1C012223
:100E4C00194640F25550FFF741FA55237B80BB1CE5
:100E5C000122194640F2AA20FFF738FA25237B809D
:100E6C00BB1C012219467868FFF730FA7B8C013BDA
:100E7C009BB27B80BB1C012219467868FFF726FACF
:100E8C007B6A5B00BA6813447A8C19467868FFF762
:100E9C001DFA29237B80BB1C012219467868FFF7B9
:100EAC0015FA7A8C7B681344581E7A8C7B6A13442F
:100EBC0003F10043013B5B00BA6813441B881946DD
:100ECC00FFF730FE0C4B1B88002B02D1FFF782FD85
:100EDC000CE07B8C7A6A13447B623B8A7A6A9A4276
:100EEC00FFF45DAFFFF776FDFFF726FD2837BD4613
:100EFC0080BD00BF04000020A001002080B584B09C
:100F0C0000AF104B1B680333FB60FB681B68BB60B6
:100F1C000C4B1B681B889BB2093BFB80FB885B0856
:100F2C00BB80FB6804333B60BB881A463968B868E1
:100F3C00FFF7CCF9FFF74EFDFFF7FEFC00BF1037B3
:100F4C00BD4680BD0400002080B586B000AF144BB8
:100F5C001B6803337B617B691B683B613B695B08E6
:100F6C00FB607B691A795B791B0213437B817B895C
:100F7C005B083B810B4B1B6802337B603B891A4639
:100F8C007968F868FFF75AF9FFF724FD7B89194651
:100F9C000020FFF789FC00BF1837BD4680BD00BF9D
:100FAC00040000200800002080B584B000AF104B76
:100FBC001B680333FB60FB681B689BB2BB600C4B6C
:100FCC001B681B889BB2093BFB80FB6804333B60AE
:100FDC00BB689BB2FA8839681846FFF701FAFFF72D
:100FEC00F9FCFFF7A9FC00BF1037BD4680BD00BF60
:100FFC000400002080B584B000AF114B1B68033394
:10100C00FB60FB681B68BB60FB681A795B791B0291
:10101C001343FB800B4B1B6802333B60BB689BB2DA
:10102C00FA8839681846FFF797F9FFF7D3FCFB8865
:10103C0019460020FFF738FC00BF1037BD4680BDB5
:10104C00040000200800002080B586B000AF314BB2
:10105C001B6803333B613B691B689BB2FB602D4BE8
:10106C001B681B889BB2093B7B813B6904337B600B
:10107C0000237B6143E0AA23FB70FB1C0122194671
:10108C0045F25550FFF7ACF95523FB70FB1C0122C0
:10109C00194642F6AA20FFF7A3F9A023FB70FB1C0C
:1010AC000122194645F25550FFF79AF9FB689AB29E
:1010BC007B699BB2134498B27B697A681344012212
:1010CC001946FFF78DF9FB689AB27B699BB2134402
:1010DC009BB2B91C01221846FFF73EF90E4B1B8838
:1010EC00002B02D1FFF776FC11E07B697A68134480
:1010FC001A78BB789A42E6D17B6901337B617B8994
:10110C007A699A42B7DBFFF765FCFFF715FC1837D5
:10111C00BD4680BD04000020A001002080B586B033
:10112C0000AF1F4B1B680333FB60FB681B689BB253
:10113C00BB601B4B1B681B889BB20A3BFB80FB688C
:10114C001B797B71FB68043301333B6000237B61AB
:10115C001AE0BB689AB27B699BB2134498B27B6964
:10116C003A68134401221946FFF73AF900233B6110
:10117C0003E000BF3B6901333B617B793A699A42DA
:10118C00F7DB7B6901337B61FB887A699A42E0DB90
:10119C00FFF720FCFFF7D0FB00BF1837BD4680BD22
:1011AC000400002080B586B000AF214B1B680333D0
:1011BC00FB60FB681B68BB60FB681A795B791B02E0
:1011CC001343FB801A4B1B685B7A7B71194B1B68B2
:1011DC0002333B6000237B611AE0BB689AB27B69E7
:1011EC009BB2134498B27B693A68134401221946A6
:1011FC00FFF7B2F800233B6103E000BF3B6901330A
:10120C003B617B793A699A42F7DB7B6901337B61FD
:10121C00FB887A699A42E0DBFFF7DCFBFB88194616
:10122C000020FFF741FB00BF1837BD4680BD00BF53
:10123C00040000200800002080B584B000AF104BE3
:10124C001B680333FB60FB681B689BB2BB600C4BD9
:10125C001B681B889BB2093BFB80FB6804333B601B
:10126C00BB689BB2FA8839681846FFF741F9FFF75B
:10127C00B1FBFFF761FB00BF1037BD4680BD00BF5F
:10128C000400002080B584B000AF114B1B68033301
:10129C00FB60FB681B68BB60FB681A795B791B02FF
:1012AC001343FB800B4B1B6802333B60BB689BB248
:1012BC00FA8839681846FFF7D9F8FFF78BFBFB88DB
:1012CC0019460020FFF7F0FA00BF1037BD4680BD6D
:1012DC00040000200800002080B588B000AF674BE8
:1012EC001B6803337B617B691B689BB23B61634B5F
:1012FC001B681B889BB20B3BFB817B6904331B88EF
:10130C00BB817B6904330233BB600023FB61A8E023
:10131C003A69FB6913447B60BB89002B3CD1AA233F
:10132C00FB70FB1C0122194640F6AA20FFF7E0F8DF
:10133C005523FB70FB1C0122194640F25550FFF758
:10134C00D7F8A023FB70FB1C0122194640F6AA20FB
:10135C00FFF7CEF87B6898B2BA68FB691344012298
:10136C001946FFF7C5F87B689BB2B91C01221846D9
:10137C00FFF77CF8424B1B88002B02D1FFF72AFBAE
:10138C0078E0BA68FB6913441A78BB789A42EAD1C0
:10139C00FB690133FB6164E0FB699BB2FA89D31AE8
:1013AC007B837A8BBB899A4201D9BB897B83AA2325
:1013BC00FB70FB1C0122194640F6AA20FFF798F897
:1013CC005523FB70FB1C0122194640F25550FFF7C8
:1013DC008FF82523FB707B689BB2F91C0122184601
:1013EC00FFF786F87B8BDBB2013BDBB2FB707B68D3
:1013FC009BB2F91C01221846FFF77AF87B6898B269
:10140C00BA68FB6913447A8B1946FFF771F82923E4
:10141C00FB707B689BB2F91C01221846FFF768F839
:10142C007B689AB27B8B13449BB2013B9BB2791CB9
:10143C0001221846FFF71AF8114B1B88002B02D11A
:10144C00FFF7C8FA16E07A8BFB691344013BBA68C4
:10145C0013441A787B789A42E2D17B8BFA69134455
:10146C00FB61FB89FA699A42FFF452AFFFF7B2FABB
:10147C00FFF762FA2037BD4680BD00BF0400002094
:10148C00A001002080B586B000AF1F4B1B68033352
:10149C00FB60FB681B689BB2BB601B4B1B681B880B
:1014AC009BB2093BFB80FB681B797B71FB680433A7
:1014BC0001333B6000237B611AE0BB689AB27B6905
:1014CC009BB2134498B27B693A68134401221946C3
:1014DC00FFF70EF800233B6103E000BF3B690133CB
:1014EC003B617B793A699A42F7DB7B6901337B611B
:1014FC00FB887A699A42E0DBFFF76CFAFFF71CFA7B
:10150C0000BF1837BD4680BD0400002080B586B0F2
:10151C0000AF214B1B680333FB60FB681B68BB608F
:10152C00FB681A795B791B021343FB801A4B1B680F
:10153C005B7A7B71194B1B6802333B6000237B6128
:10154C001AE0BB689AB27B699BB2134498B27B6970
:10155C003A68134401221946FEF788FF00233B61C9
:10156C0003E000BF3B6901333B617B793A699A42E6
:10157C00F7DB7B6901337B61FB887A699A42E0DB9C
:10158C00FFF728FAFB8819460020FFF78DF900BFFA
:10159C001837BD4680BD00BF0400002008000020A5
:1015AC00FFF74AF90B480C490C4A002302E0D458C7
:1015BC00C4500433C4188C42F9D3094A094C002393
:1015CC0001E013600432A242FBD307F0CFF8FEF720
:1015DC00D3FF7047000000208401002068880008B9
:1015EC0084010020643E0020FEE7000080B500AFBF
:1015FC00084B1B68074A43F010031360032000F0EC
:10160C0023F90F2000F008F8FFF7AEF80023184676
:10161C0080BD00BF0020024080B582B000AF786072
:10162C00124B1A68124B1B7819464FF47A73B3FBA2
:10163C00F1F3B2FBF3F3184600F03BF90346002B31
:10164C0001D001230EE07B680F2B0AD800227968A9
:10165C004FF0FF3000F003F9064A7B68136000235B
:10166C0000E0012318460837BD4680BD000000206D
:10167C00100000200C00002080B400AF054B1B783C
:10168C001A46054B1B681344034A136000BFBD4642
:10169C0080BC704710000020A02C002080B400AF4C
:1016AC00024B1B681846BD4680BC7047A02C00201E
:1016BC0080B485B000AF78607B6803F00703FB60F3
:1016CC000C4BDB68BB60BA684FF6FF031340BB6082
:1016DC00FB681A02BB68134343F0BF6343F4003347
:1016EC00BB60044ABB68D36000BF1437BD4680BCE6
:1016FC00704700BF00ED00E080B400AF044BDB6826
:10170C001B0A03F007031846BD4680BC704700BF98
:10171C0000ED00E080B483B000AF0346FB7197F995
:10172C000730002B0BDBFB7903F01F02064997F9FE
:10173C0007305B09012000FA02F241F8232000BFB8
:10174C000C37BD4680BC704700E100E080B483B02C
:10175C0000AF03463960FB7197F90730002B0ADBA9
:10176C003B68DAB20C4997F907301201D2B20B443C
:10177C0083F800230AE03B68DAB20849FB7903F0EE
:10178C000F03043B1201D2B20B441A7600BF0C3784
:10179C00BD4680BC704700BF00E100E000ED00E0FA
:1017AC0080B489B000AFF860B9607A60FB6803F070
:1017BC000703FB61FB69C3F10703042B28BF042358
:1017CC00BB61FB690433062B02D9FB69033B00E0C8
:1017DC0000237B614FF0FF32BB6902FA03F3DA435B
:1017EC00BB681A407B699A404FF0FF317B6901FA64
:1017FC0003F3D9437B680B40134318462437BD468B
:10180C0080BC704780B582B000AF78607B68013BCC
:10181C00B3F1807F01D301230FE00A4A7B68013BBF
:10182C0053600F214FF0FF30FFF790FF054B002264
:10183C009A60044B07221A60002318460837BD46ED
:10184C0080BD00BF10E000E080B582B000AF7860D2
:10185C007868FFF72DFF00BF0837BD4680BD80B507
:10186C0086B000AF0346B9607A60FB7300237B61DE
:10187C00FFF742FF78617A68B9687869FFF790FFE3
:10188C00024697F90F3011461846FFF75FFF00BF6D
:10189C001837BD4680BD80B582B000AF0346FB71E2
:1018AC0097F907301846FFF735FF00BF0837BD46DC
:1018BC0080BD80B582B000AF78607868FFF7A2FF7A
:1018CC00034618460837BD4680BD000080B48BB077
:1018DC0000AF7860396000237B6200233B6269E1D2
:1018EC0001227B6A02FA03F3FB613B681B68FA690D
:1018FC001340BB61BA69FB699A4240F058813B685E
:10190C005B689A4A93425ED0984A934275D8984A3B
:10191C00934258D0964A93426FD8964A934252D0EB
:10192C00944A934269D8944A93424CD0924A934237
:10193C0063D8924A934246D0904A93425DD8122B78
:10194C002AD8122B59D801A252F823F0D319000827
:10195C00AD190008BF190008011A0008071A000881
:10196C00071A0008071A0008071A0008071A0008C7
:10197C00071A0008071A0008071A0008071A0008B7
:10198C00071A0008071A0008071A0008071A0008A7
:10199C00B5190008C9190008794A934213D02CE0F4
:1019AC003B68DB683B6229E03B68DB6804333B62E5
:1019BC0024E03B68DB6808333B621FE03B68DB6874
:1019CC000C333B621AE03B689B68002B02D104236A
:1019DC003B6213E03B689B68012B05D108233B62FB
:1019EC007B68FA691A6109E008233B627B68FA6933
:1019FC005A6103E000233B6200E000BFBB69FF2B90
:101A0C0001D87B6801E07B6804337B61BB69FF2BE9
:101A1C0002D87B6A9B0002E07B6A083B9B003B611F
:101A2C007B691A680F213B6901FA03F3DB431A4007
:101A3C00396A3B6901FA03F31A437B691A603B6804
:101A4C005B6803F08053002B00F0B1804D4B9B6919
:101A5C004C4A43F0010393614A4B9B6903F0010329
:101A6C00BB60BB68484A7B6A9B08023352F8233040
:101A7C00FB607B6A03F003039B000F2202FA03F363
:101A8C00DB43FA681340FB607B68404A934213D0F7
:101A9C007B683F4A93420DD07B683E4A934207D005
:101AAC007B683D4A934201D1032306E0042304E002
:101ABC00022302E0012300E000237A6A02F0030211
:101ACC0092009340FA681343FB602F497B6A9B0892
:101ADC000233FA6841F823203B685B6803F48013F7
:101AEC00002B06D02D4B9A682C49BB6913438B6095
:101AFC0006E02A4B9A68BB69DB43284913408B608C
:101B0C003B685B6803F40013002B06D0234BDA68A8
:101B1C002249BB691343CB6006E0204BDA68BB69F2
:101B2C00DB431E491340CB603B685B6803F4003316
:101B3C00002B06D0194B5A681849BB6913434B60EC
:101B4C0006E0164B5A68BB69DB43144913404B60E3
:101B5C003B685B6803F48033002B21D00F4B1A6871
:101B6C000E49BB6913430B6021E000BF000032102B
:101B7C000000311000002210000021100000121093
:101B8C00000011100010024000000140000801404C
:101B9C00000C014000100140001401400004014001
:101BAC000B4B1A68BB69DB43094913400B607B6A1A
:101BBC0001337B623B681A687B6A22FA03F3002BC1
:101BCC007FF48EAE00BF00BF2C37BD4680BC704783
:101BDC000004014080B483B000AF78600B467B807A
:101BEC0013467B707B78002B03D07A887B681A6154
:101BFC0003E07B881A047B681A6100BF0C37BD4672
:101C0C0080BC704780B584B000AF78607B68002BD7
:101C1C0001D10123E8E07B6893F89132DBB2002B11
:101C2C0006D17B68002283F89022786806F0ECFAE3
:101C3C007B68032283F891227B6800225A717B68AF
:101C4C001B68184602F0F5F97B6818687B6804334A
:101C5C000ECB02F0CBF90346002B05D07B68022299
:101C6C0083F891220123BFE07B681B680021184692
:101C7C0002F0F9F90346002B05D07B68022283F8A9
:101C8C0091220123B0E00023FB733EE0FA7B7968DC
:101C9C0013469B001344DB000B44113301221A70D2
:101CAC00FA7B796813469B001344DB000B4410331A
:101CBC00FA7B1A70FA7B796813469B001344DB009D
:101CCC000B44133300221A70FA7B796813469B007D
:101CDC001344DB000B44203300221A60FA7B796832
:101CEC0013469B001344DB000B44243300221A6080
:101CFC00FB7B79685A1C13469B001344DB000B4496
:101D0C0000221A60FB7B0133FB737B681B79FA7B27
:101D1C009A42BBD30023FB7344E0FA7B79681346E9
:101D2C009B001344DB000B4403F2511300221A7086
:101D3C00FA7B796813469B001344DB000B4403F5D4
:101D4C00A873FA7B1A70FA7B796813469B001344CC
:101D5C00DB000B4403F2531300221A70FA7B7968F0
:101D6C0013469B001344DB000B4403F5B0730022B5
:101D7C001A60FA7B796813469B001344DB000B4412
:101D8C0003F5B27300221A60FA7B796813469B0044
:101D9C001344DB000B4403F5B47300221A60FB7B85
:101DAC000133FB737B681B79FA7B9A42B5D37B6852
:101DBC0018687B6804330ECB02F061F90346002BE4
:101DCC0005D07B68022283F8912201230CE07B680A
:101DDC0000225A737B68012283F891227B681B686E
:101DEC00184604F0E0FB002318461037BD4680BDB2
:101DFC0080B582B000AF78607B6893F89032012B8D
:101E0C0001D1022316E07B68012283F890227B68C3
:101E1C001B68184602F0F7F80121786806F067FC99
:101E2C007B681B68184604F0B4FB7B68002283F8BF
:101E3C009022002318460837BD4680BD80B588B077
:101E4C0000AF78607B681B68184604F0B6FBB8617D
:101E5C00BB6903F40043002B03D0786800F01AFB35
:101E6C0019E1BB6903F48063002B13D07B681B68FA
:101E7C00B3F844309AB27B681B6822F4806292B249
:101E8C00A3F84420786806F03AFA0021786800F04C
:101E9C0005F900E1BB6903F48043002B0CD07B688F
:101EAC001B68B3F844309AB27B681B6822F48042FA
:101EBC0092B2A3F84420EEE0BB6903F40053002B6C
:101ECC000CD07B681B68B3F844309AB27B681B68F3
:101EDC0022F4005292B2A3F84420DCE0BB6903F474
:101EEC008053002B27D07B681B68B3F840309AB224
:101EFC007B681B6822F0040292B2A3F840207B6836
:101F0C001B68B3F840309AB27B681B6822F0080259
:101F1C0092B2A3F84020786806F02AFA7B681B6816
:101F2C00B3F844309AB27B681B6822F4805292B2A8
:101F3C00A3F84420AFE0BB6903F40063002B00F06E
:101F4C0083800023FB7710E07B681B681A46FB7FBD
:101F5C009B001A44FB7F128892B25B0020333B44F7
:101F6C0023F8182CFB7F0133FB77FB7F072BEBD976
:101F7C007B681B68B3F840309AB27B681B6842F0F0
:101F8C00010292B2A3F840207B681B68B3F8403082
:101F9C009AB27B681B6822F0010292B2A3F840202F
:101FAC0000BF7B681B68B3F844309BB203F48063BA
:101FBC00002BF6D07B681B68B3F844309AB27B6870
:101FCC001B6822F4806292B2A3F844200023FB77B2
:101FDC000FE0FB7F7A6812681146FA7F92000A4480
:101FEC005B0020333B4433F8183C1380FB7F0133F8
:101FFC00FB77FB7F072BECD97B681B68B3F8403071
:10200C009AB27B681B6842F0080292B2A3F8402097
:10201C007B681B68B3F844309AB27B681B6822F467
:10202C00006292B2A3F844207B681B68B3F840307E
:10203C009AB27B681B6842F0040292B2A3F840206B
:10204C00786806F07BF926E0BB6903F40073002B7B
:10205C000FD07B681B68B3F844309AB27B681B685E
:10206C0022F4007292B2A3F84420786806F039F991
:10207C0011E0BB6903F48073002B0CD07B681B68E8
:10208C00B3F844309AB27B681B6822F4807292B227
:10209C00A3F8442000BF2037BD4680BD80B582B078
:1020AC0000AF78600B46FB707B6893F89032012B85
:1020BC0001D1022312E07B68012283F890227B6815
:1020CC00FA785A737B681B68FA781146184604F044
:1020DC004DFA7B68002283F89022002318460837BB
:1020EC00BD4680BD80B584B000AF7860084611460F
:1020FC001A460346FB700B463B801346BB7000230D
:10210C00FB7297F90330002B0EDAFB7803F0070211
:10211C0013469B001344DB0010337A681344FB60B6
:10212C00FB6801225A700EE0FB7803F0070213469D
:10213C009B001344DB0003F5A8737A681344FB601F
:10214C00FB6800225A70FB7803F00703DAB2FB68D5
:10215C001A703A88FB681A61FB68BA78DA70BB7837
:10216C00022B02D1FB6800221A717B6893F8903223
:10217C00012B01D102230EE07B68012283F890220F
:10218C007B681B68F968184601F096FF7B68002293
:10219C0083F89022FB7A18461037BD4680BD80B577
:1021AC0084B000AF78600B46FB7097F90330002BBE
:1021BC000EDAFB7803F0070213469B001344DB0096
:1021CC0010337A681344FB60FB6801225A700EE0EE
:1021DC00FB7803F0070213469B001344DB0003F566
:1021EC00A8737A681344FB60FB6800225A70FB7872
:1021FC0003F00703DAB2FB681A707B6893F890322D
:10220C00012B01D102230EE07B68012283F890227E
:10221C007B681B68F968184602F00EFB7B6800228D
:10222C0083F89022002318461037BD4680BD80B538
:10223C0086B000AFF8607A603B600B46FB72FB7AAD
:10224C0003F0070213469B001344DB0003F5A8734D
:10225C00FA6813447B617B697A685A617B693A68D6
:10226C009A617B690022DA617B6900225A70FB7AE1
:10227C0003F00703DAB27B691A70FB681B68796993
:10228C00184602F0C5FC002318461837BD4680BD21
:10229C0080B483B000AF78600B46FB70FB7803F022
:1022AC000702796813469B001344DB000B4403F5CB
:1022BC00B6731B6818460C37BD4680BC704780B59A
:1022CC0086B000AFF8607A603B600B46FB72FB7A1D
:1022DC0003F0070213469B001344DB001033FA682B
:1022EC0013447B617B697A685A617B693A689A61AD
:1022FC007B69012283F824207B693A681A627B6926
:10230C000022DA617B6901225A70FB7A03F0070321
:10231C00DAB27B691A70FB681B687969184602F09F
:10232C0077FC002318461837BD4680BD80B584B0B5
:10233C0000AF78600B46FB70FB7803F007037A68FC
:10234C001279934201D901234CE097F90330002B09
:10235C000EDAFB7803F0070213469B001344DB00F4
:10236C0010337A681344FB60FB6801225A700CE04E
:10237C00FA7813469B001344DB0003F5A8737A68C4
:10238C001344FB60FB6800225A70FB6801229A70B0
:10239C00FB7803F00703DAB2FB681A707B6893F8DA
:1023AC009032012B01D102231CE07B68012283F8BF
:1023BC0090227B681B68F968184603F0DAFFFB78FB
:1023CC0003F00703002B08D17B681A687B6803F5C0
:1023DC0026731946104604F0FFF87B68002283F838
:1023EC009022002318461037BD4680BD80B584B0BE
:1023FC0000AF78600B46FB70FB7803F00F037A6834
:10240C001279934201D9012340E097F90330002B54
:10241C000EDAFB7803F0070213469B001344DB0033
:10242C0010337A681344FB60FB6801225A700EE08B
:10243C00FB7803F0070213469B001344DB0003F503
:10244C00A8737A681344FB60FB6800225A70FB681F
:10245C0000229A70FB7803F00703DAB2FB681A705B
:10246C007B6893F89032012B01D102230EE07B683C
:10247C00012283F890227B681B68F968184603F0E8
:10248C00C8FF7B68002283F890220023184610377F
:10249C00BD4680BD80B596B000AF7860BBE37B686D
:1024AC001B68B3F84430A7F84E30B7F84E30DBB2A7
:1024BC0003F00F0387F84D3097F84D30002B40F0A8
:1024CC007581B7F84E3003F01003002B4ED17B68AA
:1024DC001B681B889BB223F4E14323F07003FB8140
:1024EC007B681A68FB896FEA43436FEA53439BB2DC
:1024FC0013807B6810337B657B681B68B3F85030A6
:10250C009BB21A467B6D1B78DB00134402335B00D5
:10251C007A681268134403F580631B88C3F30902BD
:10252C007B6DDA617B6D5A697B6DDB691A447B6D5F
:10253C005A610021786805F0BAFE7B685B7BDBB2E0
:10254C00002B00F068837B6D9B69002B40F063834C
:10255C007B685B7BDBB263F07F03DAB27B681B6862
:10256C00A3F84C207B6800225A7354E37B6803F574
:10257C00A8737B657B681B681B88A7F84A30B7F883
:10258C004A3003F40063002B34D07B681B68B3F82B
:10259C0050309BB21A467B6D1B78DB00134406331C
:1025AC005B007A681268134403F580631B88C3F3DD
:1025BC0009027B6DDA617B6818687B6803F526710C
:1025CC007B6DDA887B6DDB699BB204F056F87B6817
:1025DC001B681B889AB240F68F7313403B827B6852
:1025EC001B683A8A42F0800292B21A80786805F031
:1025FC0031FE10E3B7F94A30002B80F20C837B6874
:10260C001B681B889AB240F68F731340FB837B6860
:10261C001B68FA8B42F0800292B21A807B681B68AE
:10262C00B3F850309BB21A467B6D1B78DB00134419
:10263C0006335B007A681268134403F580631B88C9
:10264C00C3F309027B6DDA617B6DDB69002B19D05A
:10265C007B6D5B69002B15D07B6818687B6D5969A5
:10266C007B6DDA887B6DDB699BB204F006F87B6DC1
:10267C005A697B6DDB691A447B6D5A61002178685D
:10268C0005F0FAFD7B681B681B88A7F84A30B7F881
:10269C004A3003F40063002B40F0BD82B7F84A3097
:1026AC0003F44053B3F5405F00F0B5827B681B68C0
:1026BC00BB617B681B68B3F850309BB21A46BB6990
:1026CC001344BB61BB6903F20C437B617B691B88C0
:1026DC009BB2C3F309039AB27B691A807B6D1B69A9
:1026EC003E2B1DD97B6D1B695B097B647B6D1B6964
:1026FC0003F01F03002B02D17B6C013B7B647B69D5
:10270C001B889AB27B6C9BB29B029BB213439BB20D
:10271C006FEA43436FEA53439AB27B691A8026E00F
:10272C007B6D1B69002B0AD17B691B889BB26FEAFE
:10273C0043436FEA53439AB27B691A8017E07B6D6F
:10274C001B695B087B647B6D1B6903F00103002B29
:10275C0002D07B6C01337B647B691B889AB27B6CE7
:10276C009BB29B029BB213439AB27B691A807B6823
:10277C001B681B889BB223F4804323F070037B827D
:10278C007B8A83F480537B827B8A83F400537B8225
:10279C007B681A687B8A43F07F4343F47F0343F4DE
:1027AC00004343F080039BB2138034E27B681B68C8
:1027BC001A4697F84D309B0013441B88A7F84A30F3
:1027CC00B7F94A30002B80F2FC807B681B681A46F4
:1027DC0097F84D309B0013441B889AB240F68F73C8
:1027EC001340A7F848307B681B681A4697F84D30A1
:1027FC009B001344B7F8482042F0800292B21A8032
:10280C0097F84D2013469B001344DB0003F5A87387
:10281C007A6813447B657B6D1B7B002B25D17B6811
:10282C001B68B3F850309BB21A467B6D1B78DB00EB
:10283C00134406335B007A681268134403F5806313
:10284C001B88C3F30903A7F85030B7F85030002B9E
:10285C0000F092807B6818687B6D59697B6DDA8813
:10286C00B7F8503003F009FF86E07B6DDB78022B64
:10287C000AD1B7F84A301A46796D786800F0D9F960
:10288C000346A7F8503077E07B681B681A467B6DCF
:10289C001B789B0013441B889BB223F4E04323F06A
:1028AC007003A7F852307B681B681A467B6D1B7847
:1028BC009B001A44B7F8523043F07F4343F47F0334
:1028CC0043F4004343F0C0039BB213807B681B6846
:1028DC001A467B6D1B789B0013441B889BB203F438
:1028EC008043002B24D07B681B68B3F850309BB21C
:1028FC001A467B6D1B78DB00134402335B007A684D
:10290C001268134403F580631B88C3F30903A7F80B
:10291C005030B7F85030002B2ED07B6818687B6D88
:10292C0059697B6D1A89B7F8503003F0A6FE23E085
:10293C007B681B68B3F850309BB21A467B6D1B78D2
:10294C00DB00134406335B007A681268134403F50A
:10295C0080631B88C3F30903A7F85030B7F85030D5
:10296C00002B09D07B6818687B6D59697B6D5A897F
:10297C00B7F8503003F081FE7B6DDA69B7F8503050
:10298C001A447B6DDA617B6D5A69B7F850301A4482
:10299C007B6D5A617B6D9B69002B05D0B7F850207D
:1029AC007B6D1B699A4206D27B6D1B781946786841
:1029BC0005F062FC05E07B681B68796D184602F037
:1029CC0027F9B7F84A3003F08003002B00F023817D
:1029DC0097F84D2013469B001344DB0010337A68A4
:1029EC0013447B657B681B681A4697F84D309B0037
:1029FC0013441B889BB223F4E14323F07003A7F824
:102A0C0042307B681B681A4697F84D309B001A447D
:102A1C00B7F842306FEA43436FEA53439BB21380DB
:102A2C007B6DDB78012B40F0A2807B6D00229A61DC
:102A3C007B6D1B7B002B00F09380B7F84A3003F0C2
:102A4C004003002B46D07B6D5B78002B26D17B6836
:102A5C001B687B627B681B68B3F850309BB21A46CC
:102A6C007B6A13447B627B6D1B781A017B6A13446F
:102A7C0003F204433B623B6A1B889BB2C3F309031A
:102A8C009AB23B6A1A803B6A1B889BB26FEA43433B
:102A9C006FEA53439AB23B6A1A8061E07B6D5B78B4
:102AAC00012B5DD17B681B68FB627B681B68B3F8EC
:102ABC0050309BB21A46FB6A1344FB627B6D1B7849
:102ACC001A01FB6A134403F20443BB62BB6A002283
:102ADC001A8045E07B681B68FB637B6D5B78002B81
:102AEC0026D17B681B687B637B681B68B3F850300E
:102AFC009BB21A467B6B13447B637B6D1B781A016C
:102B0C007B6B134403F20C433B633B6B1B889BB204
:102B1C00C3F309039AB23B6B1A803B6B1B889BB2C5
:102B2C006FEA43436FEA53439AB23B6B1A8017E048
:102B3C007B6D5B78012B13D17B681B68B3F850302D
:102B4C009BB21A46FB6B1344FB637B6D1B781A011B
:102B5C00FB6B134403F20C43BB63BB6B00221A8068
:102B6C007B6D1B781946786805F0A1FB53E0B7F82C
:102B7C004A3003F48073002B46D17B681B68B3F892
:102B8C0050309BB21A467B6D1B78DB00134402332A
:102B9C005B007A681268134403F580631B88C3F3E7
:102BAC000903A7F840307B6D9A69B7F840309A4218
:102BBC0007D97B6D9A69B7F84030D21A7B6D9A6150
:102BCC0002E07B6D00229A617B6D9B69002B06D124
:102BDC007B6D1B781946786805F069FB1BE07B6DF3
:102BEC005A69B7F840301A447B6D5A617B6DDA69CB
:102BFC00B7F840301A447B6DDA617B681B68796DDD
:102C0C00184602F005F806E0B7F84A301A46796D16
:102C1C00786800F01BF97B681B68B3F844309BB2F2
:102C2C001BB2002BFFF63BAC002318465837BD46B1
:102C3C0080BD80B588B000AFF860B9601346FB80EA
:102C4C00FB8803F48043002B7ED0FB681B68B3F831
:102C5C0050309BB21A46BB681B78DB00134402331E
:102C6C005B00FA681268134403F580631B88C3F396
:102C7C0009037B83BB689A697B8B9A4206D3BB683A
:102C8C009A697B8BD21ABB689A6102E0BB680022FE
:102C9C009A61BB689B69002B23D1FB681B681A46A1
:102CAC00BB681B789B0013441B889BB223F48043A6
:102CBC0023F070033B833B8B83F400533B83FB6813
:102CCC001B681A46BB681B789B001A443B8B43F06D
:102CDC007F4343F47F0343F4004343F080039BB2F0
:102CEC001380FB8803F04003002B1FD0FB681B688C
:102CFC001A46BB681B789B0013441B889BB223F4B9
:102D0C00E04323F07003FB82FB681B681A46BB6828
:102D1C001B789B001A44FB8A43F07F4343F47F03E8
:102D2C0043F4004343F0C0039BB213807B8B002B16
:102D3C0000F08780FB681868BB685969BB681A8902
:102D4C007B8B03F09AFC7CE0FB681B68B3F850307B
:102D5C009BB21A46BB681B78DB00134406335B003E
:102D6C00FA681268134403F580631B88C3F30903E4
:102D7C007B83BB689A697B8B9A4206D3BB689A6942
:102D8C007B8BD21ABB689A6102E0BB6800229A6105
:102D9C00BB689B69002B23D1FB681B681A46BB6878
:102DAC001B789B0013441B889BB223F4804323F0B5
:102DBC007003FB83FB8B83F40053FB83FB681B6862
:102DCC001A46BB681B789B001A44FB8B43F07F436D
:102DDC0043F47F0343F4004343F080039BB213801E
:102DEC00FB8803F04003002B1FD1FB681B681A46BD
:102DFC00BB681B789B0013441B889BB223F4E043F5
:102E0C0023F07003BB83FB681B681A46BB681B78F6
:102E1C009B001A44BB8B43F07F4343F47F0343F482
:102E2C00004343F0C0039BB213807B8B002B08D074
:102E3C00FB681868BB685969BB685A897B8B03F0BF
:102E4C001CFC7B8B18462037BD4680BD80B5A4B0DA
:102E5C0000AFF860B9601346FB80FB8803F04003B9
:102E6C00002B00F0DD81FB681B68B3F850309BB27F
:102E7C001A46BB681B78DB00134402335B00FA680C
:102E8C001268134403F580631B88C3F30903A7F886
:102E9C008630BB689A69B7F886309A4207D9BB6806
:102EAC009A69B7F88630D21ABB689A6102E0BB689F
:102EBC0000229A61BB689B69002B40F0B980BB680B
:102ECC005B78002B26D1FB681B68FB62FB681B68D8
:102EDC00B3F850309BB21A46FB6A1344FB62BB68D2
:102EEC001B781A01FB6A134403F20443BB62BB6AEE
:102EFC001B889BB2C3F309039AB2BB6A1A80BB6AE4
:102F0C001B889BB26FEA43436FEA53439AB2BB6A86
:102F1C001A801AE0BB685B78012B16D1FB681B6822
:102F2C007B63FB681B68B3F850309BB21A467B6B13
:102F3C0013447B63BB681B781A017B6B134403F24D
:102F4C0004433B633B6B00221A80FB681B687B626B
:102F5C00BB685B78002B26D1FB681B68FB61FB68A8
:102F6C001B68B3F850309BB21A46FB691344FB61E3
:102F7C00BB681B781A01FB69134403F20C43BB6159
:102F8C00BB691B889BB2C3F309039AB2BB691A8055
:102F9C00BB691B889BB26FEA43436FEA53439AB2F7
:102FAC00BB691A8017E0BB685B78012B13D1FB68F7
:102FBC001B68B3F850309BB21A467B6A13447B6291
:102FCC00BB681B781A017B6A134403F20C433B6207
:102FDC003B6A00221A80BB681B781946F86805F01A
:102FEC0066F9FB8803F48043002B00F0FC82FB683D
:102FFC001B681A46BB681B789B0013441B889BB24A
:10300C0023F4E04323F07003FB82FB681B681A4631
:10301C00BB681B789B001A44FB8A43F07F4343F444
:10302C007F0343F4404343F080039BB21380DAE206
:10303C00FB8803F48043002B21D0FB681B681A46E5
:10304C00BB681B789B0013441B889BB223F4E043A2
:10305C0023F07003A7F88A30FB681B681A46BB681C
:10306C001B789B001A44B7F88A3043F07F4343F433
:10307C007F0343F4404343F080039BB21380BB684F
:10308C0093F82430012B40F0AE82BB685A69B7F834
:10309C0086301A44BB685A61BB68DA69B7F8863067
:1030AC001A44BB68DA61BB681A6ABB681B699A422E
:1030BC000BD3BB681B69C7F88C30BB681A6AD7F88E
:1030CC008C30D21ABB681A6217E0BB681B6A002BE3
:1030DC0008D1B7F88630C7F88C30BB68002283F86B
:1030EC0024200AE0BB68002283F82420BB681B6AFA
:1030FC00C7F88C30BB6800221A62BB685B78002B67
:10310C0065D1FB681B68FB63FB681B68B3F8503028
:10311C009BB21A46FB6B1344FB63BB681B781A010A
:10312C00FB6B134403F20443BB63BB6B1B889BB266
:10313C00C3F309039AB2BB6B1A80D7F88C303E2BC1
:10314C001DD9D7F88C305B09BB64D7F88C3003F0F1
:10315C001F03002B02D1BB6C013BBB64BB6B1B88F8
:10316C009AB2BB6C9BB29B029BB213439BB26FEAAD
:10317C0043436FEA53439AB2BB6B1A8044E0D7F8CF
:10318C008C30002B0AD1BB6B1B889BB26FEA43437C
:10319C006FEA53439AB2BB6B1A8035E0D7F88C3088
:1031AC005B08BB64D7F88C3003F00103002B02D012
:1031BC00BB6C0133BB64BB6B1B889AB2BB6C9BB200
:1031CC009B029BB213439AB2BB6B1A801CE0BB6888
:1031DC005B78012B18D1FB681B687B64FB681B6850
:1031EC00B3F850309BB21A467B6C13447B64BB68BB
:1031FC001B781A017B6C134403F204433B64D7F82D
:10320C008C309AB23B6C1A80FB681868BB685969A1
:10321C00BB681A89D7F88C309BB203F0E8F9E2E16D
:10322C00FB681B68B3F850309BB21A46BB681B781E
:10323C00DB00134406335B00FA681268134403F591
:10324C0080631B88C3F30903A7F88630BB689A69AF
:10325C00B7F886309A4207D3BB689A69B7F88630BC
:10326C00D21ABB689A6102E0BB6800229A61BB6803
:10327C009B69002B40F0C080BB685B78002B26D18B
:10328C00FB681B68FB67FB681B68B3F850309BB28C
:10329C001A46FB6F1344FB67BB681B781A01FB6F64
:1032AC00134403F20443BB67BB6F1B889BB2C3F38D
:1032BC0009039AB2BB6F1A80BB6F1B889BB26FEA73
:1032CC0043436FEA53439AB2BB6F1A801AE0BB6850
:1032DC005B78012B16D1FB681B687B66FB681B684F
:1032EC00B3F850309BB21A467B6E13447B66BB68B6
:1032FC001B781A017B6E134403F204433B663B6E4E
:10330C0000221A80FB681B687B67BB685B78002B0C
:10331C002BD1FB681B68FB66FB681B68B3F850304D
:10332C009BB21A46FB6E1344FB66BB681B781A01F2
:10333C00FB6E134403F20C43C7F88030D7F880308F
:10334C001B889BB2C3F309039AB2D7F880301A805A
:10335C00D7F880301B889BB26FEA43436FEA534324
:10336C009AB2D7F880301A8017E0BB685B78012BD3
:10337C0013D1FB681B68B3F850309BB21A467B6FB5
:10338C0013447B67BB681B781A017B6F134403F2F1
:10339C000C433B673B6F00221A80BB681B781946B5
:1033AC00F86804F084FFFB8803F48043002B40F0A2
:1033BC001A81FB681B681A46BB681B789B00134478
:1033CC001B889BB223F4E04323F07003A7F88830EA
:1033DC00FB681B681A46BB681B789B001A44B7F83D
:1033EC00883043F07F4343F47F0343F4404343F07E
:1033FC0080039BB21380F6E0FB8803F48043002B20
:10340C0021D1FB681B681A46BB681B789B001344D0
:10341C001B889BB223F4E04323F07003A7F84E30D3
:10342C00FB681B681A46BB681B789B001A44B7F8EC
:10343C004E3043F07F4343F47F0343F4404343F067
:10344C0080039BB21380BB6893F82430012B40F0AF
:10345C00CA80BB685A69B7F886301A44BB685A618F
:10346C00BB68DA69B7F886301A44BB68DA61BB68A6
:10347C001A6ABB681B699A420BD3BB681B69C7F8F5
:10348C008C30BB681A6AD7F88C30D21ABB681A62B7
:10349C0017E0BB681B6A002B08D1B7F88630C7F859
:1034AC008C30BB68002283F824200AE0BB681B6ABE
:1034BC00C7F88C30BB6800221A62BB68002283F804
:1034CC002420FB681B687B65BB685B78002B65D18F
:1034DC00FB681B68FB65FB681B68B3F850309BB23C
:1034EC001A46FB6D1344FB65BB681B781A01FB6D18
:1034FC00134403F20C43BB65BB6D1B889BB2C3F337
:10350C0009039AB2BB6D1A80D7F88C303E2B1DD9AB
:10351C00D7F88C305B09BB66D7F88C3003F01F03EF
:10352C00002B02D1BB6E013BBB66BB6D1B889AB2F4
:10353C00BB6E9BB29B029BB213439BB26FEA43439D
:10354C006FEA53439AB2BB6D1A8041E0D7F88C30C6
:10355C00002B0AD1BB6D1B889BB26FEA43436FEA09
:10356C0053439AB2BB6D1A8032E0D7F88C305B08AB
:10357C00BB66D7F88C3003F00103002B02D0BB6E76
:10358C000133BB66BB6D1B889AB2BB6E9BB29B02B0
:10359C009BB213439AB2BB6D1A8019E0BB685B787F
:1035AC00012B15D1FB681B68B3F850309BB21A463F
:1035BC007B6D13447B65BB681B781A017B6D1344D0
:1035CC0003F20C433B65D7F88C309AB23B6D1A80F2
:1035DC00FB681868BB685969BB685A89D7F88C3086
:1035EC009BB203F004F8FB681B681A46BB681B7897
:1035FC009B0013441B889BB223F4E04323F040034D
:10360C00BB82BB8A83F01003BB82BB8A83F020038E
:10361C00BB82FB681B681A46BB681B789B001A446C
:10362C00BB8A43F07F4343F47F0343F4004343F0EE
:10363C0080039BB21380002318469037BD4680BD93
:10364C0080B487B000AFF8607B600B467B8113467B
:10365C003B817B8903F080039BB2002B0BD07B89D1
:10366C0003F0070213469B001344DB001033FA6887
:10367C0013447B6109E07A8913469B001344DB00F9
:10368C0003F5A873FA6813447B613B89002B07D1BF
:10369C007B6900221A737B689AB27B69DA800BE033
:1036AC007B6901221A737B689AB27B691A817B68E9
:1036BC001B0C9AB27B695A81002318461C37BD46F5
:1036CC0080BC704780B586B000AF78607B68002BFB
:1036DC0001D1012372E27B681B6803F00103002B0C
:1036EC0000F08780924B5B6803F00C03042B0CD02A
:1036FC008F4B5B6803F00C03082B12D18C4B5B686F
:10370C0003F48033B3F5803F0BD1894B1B6803F472
:10371C000033002B6CD07B685B68002B68D10123D5
:10372C004CE27B685B68B3F5803F06D1804B1B682D
:10373C007F4A43F4803313602EE07B685B68002B78
:10374C000CD17B4B1B687A4A23F480331360784B83
:10375C001B68774A23F4802313601DE07B685B6849
:10376C00B3F5A02F0CD1724B1B68714A43F4802324
:10377C0013606F4B1B686E4A43F4803313600BE08D
:10378C006B4B1B686A4A23F480331360684B1B68CD
:10379C00674A23F4802313607B685B68002B13D08B
:1037AC00FDF77CFF386108E0FDF778FF02463B69C6
:1037BC00D31A642B01D9032300E25D4B1B6803F47D
:1037CC000033002BF0D014E0FDF768FF386108E0FF
:1037DC00FDF764FF02463B69D31A642B01D903231E
:1037EC00ECE1534B1B6803F40033002BF0D100E0E9
:1037FC0000BF7B681B6803F00203002B63D04C4BAB
:10380C005B6803F00C03002B0BD0494B5B6803F097
:10381C000C03082B1CD1464B5B6803F48033002B44
:10382C0016D1434B1B6803F00203002B05D07B68B9
:10383C001B69012B01D00123C0E13D4B1B6823F018
:10384C00F8027B685B69DB00394913430B603AE093
:10385C007B681B69002B20D0364B01221A60FDF7C8
:10386C001DFF386108E0FDF719FF02463B69D31ACA
:10387C00022B01D90323A1E12D4B1B6803F002039A
:10388C00002BF0D02A4B1B6823F0F8027B685B6995
:10389C00DB00274913430B6015E0264B00221A600E
:1038AC00FDF7FCFE386108E0FDF7F8FE02463B69C7
:1038BC00D31A022B01D9032380E11D4B1B6803F0A3
:1038CC000203002BF0D17B681B6803F00803002B6C
:1038DC003AD07B689B69002B19D0174B01221A60D8
:1038EC00FDF7DCFE386108E0FDF7D8FE02463B69C7
:1038FC00D31A022B01D9032360E10D4B5B6A03F051
:10390C000203002BF0D0012000F09CFA1CE00A4BC3
:10391C0000221A60FDF7C2FE38610FE0FDF7BEFE13
:10392C0002463B69D31A022B08D9032346E100BF98
:10393C00001002400000424280044242924B5B6AFB
:10394C0003F00203002BE9D17B681B6803F004032E
:10395C00002B00F0A6800023FB758B4BDB6903F07A
:10396C008053002B0DD1884BDB69874A43F0805381
:10397C00D361854BDB6903F08053BB60BB680123CB
:10398C00FB75824B1B6803F48073002B18D17F4BA3
:10399C001B687E4A43F480731360FDF77FFE386129
:1039AC0008E0FDF77BFE02463B69D31A642B01D974
:1039BC00032303E1754B1B6803F48073002BF0D0D9
:1039CC007B68DB68012B06D16F4B1B6A6E4A43F098
:1039DC00010313622DE07B68DB68002B0CD16A4B72
:1039EC001B6A694A23F001031362674B1B6A664A20
:1039FC0023F0040313621CE07B68DB68052B0CD1FD
:103A0C00614B1B6A604A43F0040313625E4B1B6AF2
:103A1C005D4A43F0010313620BE05B4B1B6A5A4A8D
:103A2C0023F001031362584B1B6A574A23F004031B
:103A3C0013627B68DB68002B15D0FDF72FFE386115
:103A4C000AE0FDF72BFE02463B69D31A41F288329D
:103A5C00934201D90323B1E04B4B1B6A03F00203E1
:103A6C00002BEED014E0FDF719FE38610AE0FDF7EB
:103A7C0015FE02463B69D31A41F28832934201D9B2
:103A8C0003239BE0404B1B6A03F00203002BEED197
:103A9C00FB7D012B05D13C4BDB693B4A23F080536A
:103AAC00D3617B68DB69002B00F08780364B5B6849
:103ABC0003F00C03082B61D07B68DB69022B46D129
:103ACC00334B00221A60FDF7E9FD386108E0FDF781
:103ADC00E5FD02463B69D31A022B01D903236DE0A5
:103AEC00294B1B6803F00073002BF0D17B681B6A19
:103AFC00B3F5803F08D1244B5B6823F400327B681C
:103B0C009B68214913434B601F4B5B6823F4741271
:103B1C007B68196A7B685B6A0B431B4913434B60D8
:103B2C001B4B01221A60FDF7B9FD386108E0FDF767
:103B3C00B5FD02463B69D31A022B01D903233DE0A4
:103B4C00114B1B6803F00073002BF0D035E0104BC9
:103B5C0000221A60FDF7A2FD386108E0FDF79EFD1A
:103B6C0002463B69D31A022B01D9032326E0064BEC
:103B7C001B6803F00073002BF0D11EE07B68DB693F
:103B8C00012B07D1012319E0001002400070004006
:103B9C00600042420B4B5B68FB60FB6803F48032B5
:103BAC007B681B6A9A4206D1FB6803F470127B682F
:103BBC005B6A9A4201D0012300E0002318461837B3
:103BCC00BD4680BD0010024080B584B000AF786067
:103BDC0039607B68002B01D10123D0E06A4B1B6854
:103BEC0003F007033A689A4210D9674B1B6823F01D
:103BFC00070265493B6813430B60634B1B6803F07A
:103C0C0007033A689A4201D00123B8E07B681B682D
:103C1C0003F00203002B20D07B681B6803F0040325
:103C2C00002B05D0594B5B68584A43F4E063536052
:103C3C007B681B6803F00803002B05D0534B5B68B3
:103C4C00524A43F460535360504B5B6823F0F002CC
:103C5C007B689B684D4913434B607B681B6803F082
:103C6C000103002B40D07B685B68012B07D1474BCD
:103C7C001B6803F40033002B15D101237FE07B6814
:103C8C005B68022B07D1414B1B6803F00073002BC0
:103C9C0009D1012373E03D4B1B6803F00203002B99
:103CAC0001D101236BE0394B5B6823F003027B6885
:103CBC005B68364913434B60FDF7F0FCF8600AE093
:103CCC00FDF7ECFC0246FB68D31A41F288329342B2
:103CDC0001D9032353E02D4B5B6803F00C027B6886
:103CEC005B689B009A42EBD1274B1B6803F00703E0
:103CFC003A689A4210D2244B1B6823F007022249DF
:103D0C003B6813430B60204B1B6803F007033A68B6
:103D1C009A4201D0012332E07B681B6803F0040354
:103D2C00002B08D0194B5B6823F4E0627B68DB68DE
:103D3C00164913434B607B681B6803F00803002B88
:103D4C0009D0124B5B6823F460527B681B69DB0063
:103D5C000E4913434B6000F021F802460B4B5B6895
:103D6C001B0903F00F030A49CB5C22FA03F3094A3F
:103D7C001360094B1B681846FDF74EFC00231846D0
:103D8C001037BD4680BD00BF00200240001002402D
:103D9C003C880008000000200C00002080B487B094
:103DAC0000AF0023FB600023BB6000237B6100237A
:103DBC007B6000233B611E4B5B68FB60FB6803F080
:103DCC000C03042B02D0082B03D027E0194B3B61CA
:103DDC0027E0FB689B0C03F00F03174AD35C7B6056
:103DEC00FB6803F48033002B10D0114B5B685B0C29
:103DFC0003F00103114AD35CBB607B680D4A03FBE3
:103E0C0002F2BB68B2FBF3F37B6104E07B680C4A03
:103E1C0002FB03F37B617B693B6102E0054B3B6179
:103E2C0000BF3B6918461C37BD4680BC704700BFBD
:103E3C000010024000127A004C8800085C880008D0
:103E4C0000093D0080B485B000AF78600A4B1B6858
:103E5C000A4AA2FB03235B0A7A6802FB03F3FB60AA
:103E6C0000BFFB685A1EFA60002BF9D100BF00BFDF
:103E7C001437BD4680BC704700000020D34D621043
:103E8C0080B586B000AF786000233B610023FB60F7
:103E9C007B681B6803F00103002B7DD00023FB75AE
:103EAC004F4BDB6903F08053002B0DD14C4BDB697E
:103EBC004B4A43F08053D361494BDB6903F0805389
:103ECC00BB60BB680123FB75464B1B6803F4807316
:103EDC00002B18D1434B1B68424A43F48073136088
:103EEC00FDF7DCFB386108E0FDF7D8FB02463B69C7
:103EFC00D31A642B01D903236DE03A4B1B6803F4EE
:103F0C008073002BF0D0364B1B6A03F44073FB60BC
:103F1C00FB68002B2ED07B685B6803F44073FA6857
:103F2C009A4227D02E4B1B6A23F44073FB602E4B16
:103F3C0001221A602C4B00221A60294AFB6813627A
:103F4C00FB6803F00103002B14D0FDF7A7FB3861CD
:103F5C000AE0FDF7A3FB02463B69D31A41F2883213
:103F6C00934201D9032336E01D4B1B6A03F0020375
:103F7C00002BEED01A4B1B6A23F440727B685B68F3
:103F8C00174913430B62FB7D012B05D1144BDB69E5
:103F9C00134A23F08053D3617B681B6803F0020340
:103FAC00002B08D00E4B5B6823F440427B689B6867
:103FBC000B4913434B607B681B6803F01003002B09
:103FCC0008D0074B5B6823F480027B68DB680449EC
:103FDC0013434B60002318461837BD4680BD00BF05
:103FEC0000100240007000404004424280B485B092
:103FFC0000AFF860384680E80E00002318461437EE
:10400C00BD4680BC704780B485B000AF78607B68DB
:10401C000022A3F844204FF43F43FB60FB689AB2A4
:10402C007B68A3F84020002318461437BD4680BC9B
:10403C00704780B485B000AF78604FF43F43FB60AD
:10404C007B68B3F840309AB2FB689BB2DB439BB2FF
:10405C0013409AB27B68A3F840200023184614370B
:10406C00BD4680BC704780B483B000AF78600B460F
:10407C00FB70002318460C37BD4680BC704780B4DB
:10408C0085B000AFF860384680E80E00FB6801226E
:10409C00A3F84020FB680022A3F84020FB68002214
:1040AC00A3F84420FB680022A3F8502000231846F4
:1040BC001437BD4680BC704780B49DB000AF7860AB
:1040CC003960002387F86F307A683B681B789B0057
:1040DC0013441B889BB223F4EC4323F07003A7F822
:1040EC006C303B68DB78032B1FD801A252F823F00D
:1040FC000D410008294100083F4100081B41000800
:10410C00B7F86C3043F40073A7F86C3012E0B7F8D2
:10411C006C3043F4C063A7F86C300BE0B7F86C302C
:10412C0043F48063A7F86C3004E0012387F86F3008
:10413C0000E000BF7A683B681B789B001A44B7F814
:10414C006C3043F07F4343F47F0343F4004343F06C
:10415C0080039BB213807A683B681B789B001344E6
:10416C001B889BB223F4E04323F070039BB23A68A4
:10417C0012781343A7F866307A683B681B789B006B
:10418C001A44B7F8663043F07F4343F47F0343F49B
:10419C00004343F080039BB213803B681B7B002BD6
:1041AC0040F078813B685B78002B00F084807B6862
:1041BC00BB617B68B3F850309BB21A46BB691344A1
:1041CC00BB613B681B781A01BB69134403F5806320
:1041DC007B613B68DB885B089BB25B009AB27B69B6
:1041EC001A807A683B681B789B0013441B887B827F
:1041FC007B8A03F04003002B1BD07A683B681B784A
:10420C009B0013441B889BB223F4E04323F0700300
:10421C003B827A683B681B789B001A443B8A43F0CC
:10422C007F4343F47F0343F4004343F0C0039BB24A
:10423C0013803B68DB78012B20D07A683B681B78B5
:10424C009B0013441B889BB223F4E04323F04003F0
:10425C00BB81BB8983F02003BB817A683B681B78E8
:10426C009B001A44BB8943F07F4343F47F0343F420
:10427C00004343F080039BB21380D5E27A683B681D
:10428C001B789B0013441B889BB223F4E04323F060
:10429C004003FB817A683B681B789B001A44FB89BE
:1042AC0043F07F4343F47F0343F4004343F0800324
:1042BC009BB21380B8E27B683B637B68B3F85030E9
:1042CC009BB21A463B6B13443B633B681B781A0149
:1042DC003B6B134403F58163FB623B68DB885B0833
:1042EC009BB25B009AB2FB6A1A807B68BB627B68EC
:1042FC00B3F850309BB21A46BB6A1344BB623B689E
:10430C001B781A01BB6A134403F20C437B627B6A71
:10431C001B889BB2C3F309039AB27B6A1A803B6871
:10432C001B693E2B1DD93B681B695B09BB663B684F
:10433C001B6903F01F03002B02D1BB6E013BBB6654
:10434C007B6A1B889AB2BB6E9BB29B029BB21343D7
:10435C009BB26FEA43436FEA53439AB27B6A1A806B
:10436C0026E03B681B69002B0AD17B6A1B889BB239
:10437C006FEA43436FEA53439AB27B6A1A8017E0A1
:10438C003B681B695B08BB663B681B6903F0010358
:10439C00002B02D0BB6E0133BB667B6A1B889AB2C2
:1043AC00BB6E9BB29B029BB213439AB27B6A1A8080
:1043BC007A683B681B789B0013441B887B847B8C3E
:1043CC0003F48043002B1BD07A683B681B789B005E
:1043DC0013441B889BB223F4E04323F070033B840B
:1043EC007A683B681B789B001A443B8C43F07F43F4
:1043FC0043F47F0343F4404343F080039BB21380A8
:10440C003B681B78002B24D17A683B681B789B0097
:10441C0013441B889BB223F4804323F07003BB83AB
:10442C00BB8B83F48053BB83BB8B83F40053BB8364
:10443C007A683B681B789B001A44BB8B43F07F4324
:10444C0043F47F0343F4004343F080039BB2138097
:10445C00EAE17A683B681B789B0013441B889BB28B
:10446C0023F4804323F07003FB83FB8B83F4005312
:10447C00FB837A683B681B789B001A44FB8B43F0E8
:10448C007F4343F47F0343F4004343F080039BB228
:10449C001380C9E13B68DB78022B1ED17A683B683C
:1044AC001B789B0013441B889BB223F4E04323F03E
:1044BC007003A7F862307A683B681B789B001A443B
:1044CC00B7F8623043F07F4343F47F0343F4014376
:1044DC0043F080039BB213801DE07A683B681B7825
:1044EC009B0013441B889BB223F4E24323F070031C
:1044FC00A7F864307A683B681B789B001A44B7F8BD
:10450C00643043F07F4343F47F0343F4004343F0B0
:10451C0080039BB213807B68FB657B68B3F85030DB
:10452C009BB21A46FB6D1344FB653B681B781A0162
:10453C00FB6D134403F58063BB653B681B895B080B
:10454C009BB25B009AB2BB6D1A807B687B657B6803
:10455C00B3F850309BB21A467B6D13447B653B68B5
:10456C001B781A017B6D134403F581633B653B6833
:10457C005B895B089BB25B009AB23B6D1A803B680F
:10458C005B78002B40F093807A683B681B789B002B
:10459C0013441B88A7F84030B7F8403003F480432D
:1045AC00002B1BD07A683B681B789B0013441B883C
:1045BC009BB223F4E04323F07003FB877A683B68DB
:1045CC001B789B001A44FB8F43F07F4343F47F031B
:1045DC0043F4404343F080039BB213807A683B68FA
:1045EC001B789B0013441B88BB87BB8F03F04003D5
:1045FC00002B1BD07A683B681B789B0013441B88EC
:10460C009BB223F4E04323F070037B877A683B680A
:10461C001B789B001A447B8F43F07F4343F47F034A
:10462C0043F4004343F0C0039BB213807A683B68A9
:10463C001B789B0013441B889BB223F4804323F00C
:10464C0070033B873B8F83F480533B873B8F83F412
:10465C0000533B877A683B681B789B001A443B8F5E
:10466C0043F07F4343F47F0343F4004343F0800360
:10467C009BB213807A683B681B789B0013441B88A1
:10468C009BB223F4E04323F04003FB867A683B683B
:10469C001B789B001A44FB8E43F07F4343F47F034B
:1046AC0043F4004343F080039BB21380BCE07A6870
:1046BC003B681B789B0013441B88A7F84E30B7F857
:1046CC004E3003F48043002B1DD07A683B681B7876
:1046DC009B0013441B889BB223F4E04323F070032C
:1046EC00A7F84C307A683B681B789B001A44B7F8E3
:1046FC004C3043F07F4343F47F0343F4404343F097
:10470C0080039BB213807A683B681B789B00134430
:10471C001B88A7F84A30B7F84A3003F04003002B47
:10472C001DD07A683B681B789B0013441B889BB296
:10473C0023F4E04323F07003A7F848307A683B6811
:10474C001B789B001A44B7F8483043F07F4343F47E
:10475C007F0343F4004343F0C0039BB213803B68D8
:10476C00DB78012B24D07A683B681B789B001344C0
:10477C001B889BB223F4E04323F04003A7F844309A
:10478C00B7F8443083F02003A7F844307A683B68CC
:10479C001B789B001A44B7F8443043F07F4343F432
:1047AC007F0343F4004343F080039BB213801DE06E
:1047BC007A683B681B789B0013441B889BB223F4DC
:1047CC00E04323F04003A7F846307A683B681B7837
:1047DC009B001A44B7F8463043F07F4343F47F0301
:1047EC0043F4004343F080039BB213807A683B6828
:1047FC001B789B0013441B889BB223F4804323F04B
:10480C007003A7F842307A683B681B789B001A4407
:10481C00B7F8423043F07F4343F47F0343F4004343
:10482C0043F080039BB2138097F86F3018467437AF
:10483C00BD4680BC704700BF80B48DB000AF7860BF
:10484C0039603B681B7B002B40F08E803B685B78AB
:10485C00002B44D07A683B681B789B0013441B8860
:10486C00BB81BB8903F04003002B1BD07A683B68EB
:10487C001B789B0013441B889BB223F4E04323F06A
:10488C0070037B817A683B681B789B001A447B8998
:10489C0043F07F4343F47F0343F4004343F0C003EE
:1048AC009BB213807A683B681B789B0013441B886F
:1048BC009BB223F4E04323F040033B817A683B68CE
:1048CC001B789B001A443B8943F07F4343F47F03DE
:1048DC0043F4004343F080039BB2138092E17A6867
:1048EC003B681B789B0013441B887B827B8A03F4F8
:1048FC008043002B1BD07A683B681B789B001344C9
:10490C001B889BB223F4E04323F070033B827A684C
:10491C003B681B789B001A443B8A43F07F4343F46B
:10492C007F0343F4404343F080039BB213807A68C7
:10493C003B681B789B0013441B889BB223F4804379
:10494C0023F07003FB817A683B681B789B001A4448
:10495C00FB8943F07F4343F47F0343F4004343F06C
:10496C0080039BB213804DE13B685B78002B40F0D9
:10497C00A5807A683B681B789B0013441B883B849A
:10498C003B8C03F48043002B1BD07A683B681B786C
:10499C009B0013441B889BB223F4E04323F0700369
:1049AC00FB837A683B681B789B001A44FB8B43F0B3
:1049BC007F4343F47F0343F4404343F080039BB2B3
:1049CC0013807A683B681B789B0013441B88BB835D
:1049DC00BB8B03F04003002B1BD07A683B681B7821
:1049EC009B0013441B889BB223F4E04323F0700319
:1049FC007B837A683B681B789B001A447B8B43F063
:104A0C007F4343F47F0343F4004343F0C0039BB262
:104A1C0013807A683B681B789B0013441B889BB2FD
:104A2C0023F4E04323F070033B837A683B681B78E4
:104A3C009B001A443B8B43F07F4343F47F0343F4C6
:104A4C00004343F0C0039BB213807A683B681B7829
:104A5C009B0013441B889BB223F4804323F0700308
:104A6C00FB827A683B681B789B001A44FB8A43F0F4
:104A7C007F4343F47F0343F4004343F080039BB232
:104A8C0013807A683B681B789B0013441B889BB28D
:104A9C0023F4E04323F04003BB827A683B681B7825
:104AAC009B001A44BB8A43F07F4343F47F0343F4D7
:104ABC00004343F080039BB21380A3E07A683B6809
:104ACC001B789B0013441B88FB85FB8D03F48043F0
:104ADC00002B1BD07A683B681B789B0013441B8807
:104AEC009BB223F4E04323F07003BB857A683B68E8
:104AFC001B789B001A44BB8D43F07F4343F47F0328
:104B0C0043F4404343F080039BB213807A683B68C4
:104B1C001B789B0013441B887B857B8D03F0400323
:104B2C00002B1BD07A683B681B789B0013441B88B6
:104B3C009BB223F4E04323F070033B857A683B6817
:104B4C001B789B001A443B8D43F07F4343F47F0357
:104B5C0043F4004343F0C0039BB213807A683B6874
:104B6C001B789B0013441B889BB223F4E04323F077
:104B7C007003FB847A683B681B789B001A44FB8C9F
:104B8C0043F07F4343F47F0343F4404343F08003FB
:104B9C009BB213807A683B681B789B0013441B887C
:104BAC009BB223F4E04323F04003BB847A683B6858
:104BBC001B789B001A44BB8C43F07F4343F47F0368
:104BCC0043F4004343F080039BB213807A683B6844
:104BDC001B789B0013441B889BB223F4804323F067
:104BEC0070037B847A683B681B789B001A447B8C2F
:104BFC0043F07F4343F47F0343F4004343F08003CB
:104C0C009BB21380002318463437BD4680BC7047D6
:104C1C0080B5C2B000AF07F58473A3F5827318603A
:104C2C0007F58473A3F58473196007F58473A3F5F2
:104C3C0084731B685B78012B40F0B78607F584738F
:104C4C00A3F584731B689A6907F58473A3F58473C1
:104C5C001B681B699A4208D907F58473A3F5847302
:104C6C001B681B69C7F8043107E007F58473A3F5CB
:104C7C0084731B689B69C7F8043107F58473A3F52B
:104C8C0084731B681B7B002B3AD107F58473A3F547
:104C9C0084731B68596907F58473A3F584731B68C7
:104CAC00DA88D7F804319BB207F58470A0F58270CE
:104CBC00006801F09CFC07F58473A3F582731B68F4
:104CCC003B6107F58473A3F582731B68B3F850300E
:104CDC009BB21A463B6913443B6107F58473A3F5F9
:104CEC0084731B681B781A013B69134403F2044359
:104CFC00FB60D7F804319AB2FB681A8000F01FBE33
:104D0C0007F58473A3F584731B68DB78022B40F0E2
:104D1C00628407F58473A3F584731B681A6A07F51C
:104D2C008473A3F584731B681B699A4240F2DF837A
:104D3C0007F58473A3F582731A6807F58473A3F5DA
:104D4C0084731B681B789B0013441B889BB223F451
:104D5C00E04323F07003A7F8563007F58473A3F5EE
:104D6C0082731A6807F58473A3F584731B681B7828
:104D7C009B001A44B7F8563043F07F4343F47F034B
:104D8C0043F4014343F080039BB2138007F5847313
:104D9C00A3F584731B681A6AD7F80431D21A07F585
:104DAC008473A3F584731B681A6207F58473A3F5E7
:104DBC0082731A6807F58473A3F584731B681B78D8
:104DCC009B0013441B889BB203F04003002B00F0A4
:104DDC00C78107F58473A3F582731B683B6307F5E2
:104DEC008473A3F584731B685B78002B77D107F56C
:104DFC008473A3F582731B68BB6207F58473A3F5F8
:104E0C0082731B68B3F850309BB21A46BB6A1344CA
:104E1C00BB6207F58473A3F584731B681B781A01B6
:104E2C00BB6A134403F20C437B627B6A1B889BB204
:104E3C00C3F309039AB27B6A1A80D7F804313E2B6C
:104E4C0021D9D7F804315B09C7F80031D7F8043100
:104E5C0003F01F03002B04D1D7F80031013BC7F836
:104E6C0000317B6A1B889AB2D7F800319BB29B0247
:104E7C009BB213439BB26FEA43436FEA53439AB21C
:104E8C007B6A1A8050E0D7F80431002B0AD17B6A78
:104E9C001B889BB26FEA43436FEA53439AB27B6A17
:104EAC001A8041E0D7F804315B08C7F80031D7F815
:104EBC00043103F00103002B04D0D7F80031013387
:104ECC00C7F800317B6A1B889AB2D7F800319BB2C5
:104EDC009B029BB213439AB27B6A1A8024E007F5BB
:104EEC008473A3F584731B685B78012B1CD107F5C5
:104EFC008473A3F582731B68B3F850309BB21A46C7
:104F0C003B6B13443B6307F58473A3F584731B68F5
:104F1C001B781A013B6B134403F20C43FB62D7F86A
:104F2C0004319AB2FB6A1A8007F58473A3F5847373
:104F3C001B685B89A7F8763007F58473A3F5847337
:104F4C001B685969D7F804319BB2B7F8762007F57E
:104F5C008470A0F58270006801F049FB07F584733A
:104F6C00A3F584731B685A69D7F804311A4407F502
:104F7C008473A3F584731B685A6107F58473A3F5D6
:104F8C0084731B681A6A07F58473A3F584731B6812
:104F9C001B699A420FD907F58473A3F584731B68B8
:104FAC001A6AD7F80431D21A07F58473A3F58473FF
:104FBC001B681A620EE007F58473A3F584731B68F3
:104FCC001B6AC7F8043107F58473A3F584731B6857
:104FDC0000221A6207F58473A3F584731B685B784F
:104FEC00002B77D107F58473A3F582731B68BB6123
:104FFC0007F58473A3F582731B68B3F850309BB22A
:10500C001A46BB691344BB6107F58473A3F584731B
:10501C001B681B781A01BB69134403F204437B61C0
:10502C007B691B889BB2C3F309039AB27B691A8014
:10503C00D7F804313E2B21D9D7F804315B09C7F8D6
:10504C00FC30D7F8043103F01F03002B04D1D7F840
:10505C00FC30013BC7F8FC307B691B889AB2D7F84F
:10506C00FC309BB29B029BB213439BB26FEA43434F
:10507C006FEA53439AB27B691A8056E0D7F8043131
:10508C00002B0AD17B691B889BB26FEA43436FEA02
:10509C0053439AB27B691A8047E0D7F804315B0816
:1050AC00C7F8FC30D7F8043103F00103002B04D00F
:1050BC00D7F8FC300133C7F8FC307B691B889AB2F7
:1050CC00D7F8FC309BB29B029BB213439AB27B691C
:1050DC001A802AE007F58473A3F584731B685B7848
:1050EC00012B22D107F58473A3F582731B683B62F5
:1050FC0007F58473A3F582731B68B3F850309BB229
:10510C001A463B6A13443B6207F58473A3F5847318
:10511C001B681B781A013B6A134403F20443FB61BE
:10512C00D7F804319AB2FB691A8007F58473A3F59A
:10513C0084731B681B89A7F8763007F58473A3F575
:10514C0084731B685969D7F804319BB2B7F8762081
:10515C0007F58470A0F58270006801F048FAEEE360
:10516C0007F58473A3F584731B685B78002B77D1E8
:10517C0007F58473A3F582731B68BB6407F584730E
:10518C00A3F582731B68B3F850309BB21A46BB6C04
:10519C001344BB6407F58473A3F584731B681B78F5
:1051AC001A01BB6C134403F204437B647B6C1B88B5
:1051BC009BB2C3F309039AB27B6C1A80D7F8043103
:1051CC003E2B21D9D7F804315B09C7F8F830D7F852
:1051DC00043103F01F03002B04D1D7F8F830013B46
:1051EC00C7F8F8307B6C1B889AB2D7F8F8309BB2B2
:1051FC009B029BB213439BB26FEA43436FEA534348
:10520C009AB27B6C1A8056E0D7F80431002B0AD185
:10521C007B6C1B889BB26FEA43436FEA53439AB291
:10522C007B6C1A8047E0D7F804315B08C7F8F8307C
:10523C00D7F8043103F00103002B04D0D7F8F83071
:10524C000133C7F8F8307B6C1B889AB2D7F8F8306A
:10525C009BB29B029BB213439AB27B6C1A802AE0DE
:10526C0007F58473A3F584731B685B78012B22D13B
:10527C0007F58473A3F582731B683B6507F584738C
:10528C00A3F582731B68B3F850309BB21A463B6D82
:10529C0013443B6507F58473A3F584731B681B7873
:1052AC001A013B6D134403F20443FB64D7F8043139
:1052BC009AB2FB6C1A8007F58473A3F584731B6890
:1052CC001B89A7F8763007F58473A3F584731B68E4
:1052DC005969D7F804319BB2B7F8762007F584707A
:1052EC00A0F58270006801F082F907F58473A3F5CC
:1052FC0084731B685A69D7F804311A4407F5847310
:10530C00A3F584731B685A6107F58473A3F5847342
:10531C001B681A6A07F58473A3F584731B681B69F1
:10532C009A420FD907F58473A3F584731B681A6A24
:10533C00D7F80431D21A07F58473A3F584731B686C
:10534C001A620EE007F58473A3F584731B681B6A5D
:10535C00C7F8043107F58473A3F584731B68002226
:10536C001A6207F58473A3F582731B683B6407F517
:10537C008473A3F584731B685B78002B77D107F5D6
:10538C008473A3F582731B68BB6307F58473A3F561
:10539C0082731B68B3F850309BB21A46BB6B134434
:1053AC00BB6307F58473A3F584731B681B781A0120
:1053BC00BB6B134403F20C437B637B6B1B889BB26C
:1053CC00C3F309039AB27B6B1A80D7F804313E2BD6
:1053DC0021D9D7F804315B09C7F8F430D7F8043178
:1053EC0003F01F03002B04D1D7F8F430013BC7F8AE
:1053FC00F4307B6B1B889AB2D7F8F4309BB29B02CB
:10540C009BB213439BB26FEA43436FEA53439AB286
:10541C007B6B1A8050E0D7F80431002B0AD17B6BE0
:10542C001B889BB26FEA43436FEA53439AB27B6B80
:10543C001A8041E0D7F804315B08C7F8F430D7F88C
:10544C00043103F00103002B04D0D7F8F4300133FE
:10545C00C7F8F4307B6B1B889AB2D7F8F4309BB248
:10546C009B029BB213439AB27B6B1A8024E007F524
:10547C008473A3F584731B685B78012B1CD107F52F
:10548C008473A3F582731B68B3F850309BB21A4631
:10549C003B6C13443B6407F58473A3F584731B685E
:1054AC001B781A013B6C134403F20C43FB63D7F8D3
:1054BC0004319AB2FB6B1A8007F58473A3F58473DD
:1054CC001B685B89A7F8763007F58473A3F58473A2
:1054DC001B685969D7F804319BB2B7F8762007F5E9
:1054EC008470A0F58270006801F081F827E207F55E
:1054FC008473A3F584731B681B6AC7F8043107F522
:10550C008473A3F582731A6807F58473A3F5847307
:10551C001B681B789B0013441B889BB223F4E2434B
:10552C0023F07003A7F8623007F58473A3F5827338
:10553C001A6807F58473A3F584731B681B789B00AA
:10554C001A44B7F8623043F07F4343F47F0343F4CB
:10555C00004343F080039BB2138007F58473A3F5DB
:10556C0082731B68FB6507F58473A3F582731B6854
:10557C00B3F850309BB21A46FB6D1344FB6507F52C
:10558C008473A3F584731B681B781A01FB6D134499
:10559C0003F20443BB65D7F804319AB2BB6D1A8091
:1055AC0007F58473A3F584731B681B89A7F8763001
:1055BC0007F58473A3F584731B685969D7F8043114
:1055CC009BB2B7F8762007F58470A0F5827000685E
:1055DC0001F00DF8B3E107F58473A3F584731B6830
:1055EC001A6AD7F80431D21A07F58473A3F58473B9
:1055FC001B681A6207F58473A3F582731A6807F5A2
:10560C008473A3F584731B681B789B0013441B885D
:10561C009BB203F04003002B00F0C68007F58473A7
:10562C00A3F582731B683B6707F58473A3F584733A
:10563C001B685B78002B77D107F58473A3F5827315
:10564C001B68BB6607F58473A3F582731B68B3F8FC
:10565C0050309BB21A46BB6E1344BB6607F584737D
:10566C00A3F584731B681B781A01BB6E134403F2F9
:10567C000C437B667B6E1B889BB2C3F309039AB207
:10568C007B6E1A80D7F804313E2B21D9D7F8043120
:10569C005B09C7F8F030D7F8043103F01F03002B77
:1056AC0004D1D7F8F030013BC7F8F0307B6E1B8883
:1056BC009AB2D7F8F0309BB29B029BB213439BB2C9
:1056CC006FEA43436FEA53439AB27B6E1A8050E001
:1056DC00D7F80431002B0AD17B6E1B889BB26FEA82
:1056EC0043436FEA53439AB27B6E1A8041E0D7F87A
:1056FC0004315B08C7F8F030D7F8043103F001032C
:10570C00002B04D0D7F8F0300133C7F8F0307B6EA3
:10571C001B889AB2D7F8F0309BB29B029BB2134312
:10572C009AB27B6E1A8024E007F58473A3F5847318
:10573C001B685B78012B1CD107F58473A3F582736E
:10574C001B68B3F850309BB21A463B6F13443B674F
:10575C0007F58473A3F584731B681B781A013B6FE0
:10576C00134403F20C43FB66D7F804319AB2FB6E78
:10577C001A8007F58473A3F584731B685B89A7F8FB
:10578C00763007F58473A3F584731B685969D7F8D1
:10579C0004319BB2B7F8762007F58470A0F58270BF
:1057AC00006800F024FFCAE007F58473A3F5847346
:1057BC001B685B78002B77D107F58473A3F5827394
:1057CC001B68FB6707F58473A3F582731B68B3F83A
:1057DC0050309BB21A46FB6F1344FB6707F584737A
:1057EC00A3F584731B681B781A01FB6F134403F237
:1057FC000443BB67BB6F1B889BB2C3F309039AB20C
:10580C00BB6F1A80D7F804313E2B21D9D7F804315D
:10581C005B09C7F8EC30D7F8043103F01F03002BF9
:10582C0004D1D7F8EC30013BC7F8EC30BB6F1B88C8
:10583C009AB2D7F8EC309BB29B029BB213439BB24B
:10584C006FEA43436FEA53439AB2BB6F1A805CE032
:10585C00D7F80431002B0AD1BB6F1B889BB26FEABF
:10586C0043436FEA53439AB2BB6F1A804DE0D7F8AB
:10587C0004315B08C7F8EC30D7F8043103F00103AE
:10588C00002B04D0D7F8EC300133C7F8EC30BB6FE9
:10589C001B889AB2D7F8EC309BB29B029BB2134395
:1058AC009AB2BB6F1A8030E007F58473A3F584734A
:1058BC001B685B78012B28D107F58473A3F58273E1
:1058CC001B68C7F8843007F58473A3F582731B68D3
:1058DC00B3F850309BB21A46D7F884301344C7F84B
:1058EC00843007F58473A3F584731B681B781A0145
:1058FC00D7F88430134403F20443C7F88030D7F848
:10590C0004319AB2D7F880301A8007F58473A3F566
:10591C0084731B681B89A7F8763007F58473A3F58D
:10592C0084731B685969D7F804319BB2B7F8762099
:10593C0007F58470A0F58270006800F058FE07F53A
:10594C008473A3F582731A6807F58473A3F58473C3
:10595C001B681B789B0013441B889BB223F4E04309
:10596C0023F040037B817B8983F010037B817B894F
:10597C0083F020037B8107F58473A3F582731A6887
:10598C0007F58473A3F584731B681B789B001A447A
:10599C007B8943F07F4343F47F0343F4004343F09C
:1059AC0080039BB2138000F0DEBC07F58473A3F573
:1059BC0084731B681B7B002B40F0BB8007F5847342
:1059CC00A3F584731B689A6907F58473A3F5847334
:1059DC001B681B699A4217D907F58473A3F5847366
:1059EC001B681B69C7F8043107F58473A3F584732E
:1059FC001B689A69D7F80431D21A07F58473A3F59A
:105A0C0084731B689A610EE007F58473A3F58473A5
:105A1C001B689B69C7F8043107F58473A3F584737D
:105A2C001B6800229A6107F58473A3F582731B68C7
:105A3C00C7F8903007F58473A3F582731B68B3F82D
:105A4C0050309BB21A46D7F890301344C7F89030B8
:105A5C0007F58473A3F584731B681B781A01D7F8B8
:105A6C009030134403F20C43C7F88C30D7F88C30C9
:105A7C001B889BB2C3F309039AB2D7F88C301A80F7
:105A8C00D7F804313E2B24D9D7F804315B09C7F879
:105A9C00E830D7F8043103F01F03002B04D1D7F8FA
:105AAC00E830013BC7F8E830D7F88C301B889AB245
:105ABC00D7F8E8309BB29B029BB213439BB26FEAC0
:105ACC0043436FEA53439AB2D7F88C301A8000F0F4
